:020000021000EC
:1000000000000420359D04006D9D0400B55C0400D3
:10001000719D0400C55C0400CD5C0400000000007C
:1000200000000000000000000000000059740400FF
:10003000799D040000000000F174040001750400C3
:10004000E5D80400A93904007F9D04007F9D0400C9
:100050007F9D04007F9D04007F9D04007F9D040020
:100060007F9D04007F9D0400454F0400754E0400F1
:100070007F9D040079DA04007F9D04002D45040073
:100080007F9D04007F9D04007F9D04007F9D0400F0
:100090007F9D04007F9D04007F9D04007F9D0400E0
:1000A0007F9D04007F9D04007F9D04007F9D0400D0
:1000B0007F9D04007F9D0400000000000000000000
:1000C0007F9D04007F9D04007F9D04007F9D0400B0
:1000D0007F9D04007F9D04007F9D04007F9D0400A0
:1000E0007F9D04007F9D04007F9D040000000000B0
:1000F000000000007F9D0400000000007F9D0400C0
:1001000010B5054C237833B9044B13B10448AFF351
:1001100000800123237010BD98080020000000001B
:10012000B864050008B5034B1BB103490348AFF39E
:10013000008008BD000000009C080020B864050095
:10014000154B002B08BF134B9D46A3F5803A0021A9
:100150008B460F461348144A121A3FF024FB0F4BEC
:10016000002B00D098470E4B002B00D09847002062
:10017000002104000D000D48002802D00C4836F084
:1001800077FB3FF0CFF92000290036F0D3FF36F09F
:100190006CFB00BF0000080000000420000000000D
:1001A0009170040098080020300801207168040054
:1001B0000000000010B5034B0360044600F044F952
:1001C000204610BD801D050010B5034B036004469A
:1001D000FFF7F0FF204610BD901D050010B5044646
:1001E000FFF7E8FF20460C2136F016FD204610BD33
:1001F00010B50446FFF7E8FF20460C2136F00CFD51
:10020000204610BD7FB5234800F0D0FD05F0FCFB73
:10021000B0F57A7F3CD301211F4803F033FC05463B
:100220001D4803F06DFC1D4904461D4805F0E4F926
:1002300028463EF099F9022602460B4600961848D9
:1002400005F0EAFA1749164805F0EEF91649144880
:1002500005F0D2F920463EF087F9009602460B469B
:100260000F4805F0D9FA11490D4805F0DDF90C48A1
:1002700005F0CAF904A9042241F8045D0C4800F015
:1002800045F904A9042241F8084D0A4800F03EF956
:1002900004B070BDD8080020380F00201B1E0500D8
:1002A000581B00202A1E05002F1E05003E1E0500BB
:1002B000CC080020C0080020F8B5124D124C13499C
:1002C000134F144E284600F0CBFA2846124D13491E
:1002D000224636F0C8FA39460222284600F0E6FAED
:1002E00028460F4D2246314636F0BDFA39460222E5
:1002F000284600F0DBFA224631462846BDE8F840A1
:1003000036F0B1BAB408002000020020981D0500A4
:10031000BD1D0500C9010100CC080020F107010046
:10032000C008002008B521484FF4E13105F090F8ED
:100330001F4800F0FBFC20B91E491F4805F074F966
:10034000FEE71E4803F0C0FC20B91D491A4805F01D
:100350006BF9FEE71B49164800F03AFD19491448AD
:1003600000F03CFD1849124800F026FD17491648D8
:1003700000F094FA1649144800F090FA12490C481B
:1003800000F032FD134A0A48002100F039FD012136
:10039000114A074800F034FD054800F02BFD0F49D5
:1003A0000548BDE8084005F03FB900BF241A002009
:1003B000D8080020411E0500581B0020380F0020DF
:1003C000561E0500881E0500B4080020CC08002039
:1003D000C0080020E1030100150401009B1E050078
:1003E00030B50A4C0A4985B00546204605F004F9A7
:1003F000294601A800F0B2F801A9204605F00AF943
:1004000001A805F00EFA05B030BD00BF581B002052
:10041000E21D050030B50A4C0A4985B00546204664
:1004200005F0EAF8294601A800F098F801A920464D
:1004300005F0F0F801A805F0F4F905B030BD00BFF3
:10044000581B0020FD1D05000D4B10B50446036030
:10045000406840B100F06AFA002804DC606810B11E
:1004600003685B689847A06840B100F084FD0028ED
:1004700004DCA06810B103685B689847204610BD93
:10048000D81E050010B50446FFF7DEFF20460C21FC
:1004900036F0C2FB204610BD064B10B5C0E9003156
:1004A00000230446836011B1084600F03AFA204662
:1004B00010BD00BFD81E0500064B10B50360002319
:1004C0000446C0E9013111B1084600F04FFD204655
:1004D00010BD00BFD81E05002DE9F341044654208D
:1004E00098460E46174636F065FB9DF8203000937F
:1004F000054643463A46314600F0DEFA2946204694
:10050000FFF7CAFF204602B0BDE8F081034640680D
:1005100008B100F01DBA986808B100F031BD70470D
:1005200040687047704710B54C21044636F074FBA4
:10053000204610BD014802F0E5BE00BF280B002098
:10054000014802F077BE00BF280B0020421D017950
:10055000014800F06BBF00BFDC08002010B58AB076
:10056000044648794B7A8A7A039088790290C87950
:100570000190097A009105A804493FF049FF05A9B7
:10058000204605F094F920460AB010BDE01E050093
:1005900010B5421D01790446074800F0F9FE4FF6F8
:1005A000FF739842014604D00448BDE8104002F0B1
:1005B00001BD94F94B0010BDDC080020280B002081
:1005C00007B500230622694605300093ADF80430D4
:1005D0003FF0B6F8003018BF012003B05DF804FB0F
:1005E00008B502790B799A4208D106220531053007
:1005F0003FF0A6F8B0FA80F0400908BD0020FCE703
:1006000010B50446074802F07DFE236820461B6AA9
:10061000984730B1621D21790348BDE8104000F0D1
:10062000E5BE10BD280B0020DC08002008B50279CB
:100630000B799A4208D10622053105303FF080F847
:10064000003018BF012008BD0120FCE710B5017182
:100650000021C1720173064C04607F2180F84B10A9
:100660001168C0F805109288A0F8092010BD00BFDD
:10067000081F05002DE9F0410F461449064605F014
:1006800016F93A7B00218A421CDD7B1801F1020831
:10069000597B9B7B083B012B01F1FF340FD821468E
:1006A000304605F0DDF80025AC420BDD08EB050314
:1006B0003B443046597B05F03AF90135F4E704EB49
:1006C0000801E0E73046BDE8F08100BF585405005E
:1006D0002DE9F04F85B0884622490192834605F006
:1006E000E6F80024A14698F80C30A34235D908EB6F
:1006F0000403671CFFB25E7B08EB07035B7B9A1E5B
:10070000012A25D9063B012B24D810250234E4B256
:1007100005FB05F30D34009344444FF0000A731EAB
:10072000EAB2534516DD019989450BD111462046A1
:100730000393029201F08CFF0146584605F0D6F86B
:10074000DDE90223009909F10109AA440C44E8E714
:100750000225DBE73E44F4B2C5E7584605B0BDE8E4
:10076000F08F00BF5854050010B500220446FFF773
:10077000AFFF204610BD08B5134602798A4208D162
:100780000622194605303EF0DBFFB0FA80F0400942
:1007900008BD0020FCE710B50446012000FA01F175
:1007A000E1722273194604F10D003EF0D8FF9DF965
:1007B000083084F84B3010BD70B50D461146C27A32
:1007C00042F010020446C272007B0D302A462044DB
:1007D0001E463EF0C4FF237B84F84B601D44257306
:1007E00070BDC37A13F0180F14BF012000207047AA
:1007F0000D4B10B504460360406840B100F096F818
:10080000002804DC606810B103685B689847A06842
:1008100040B100F0B0FB002804DCA06810B1036810
:100820005B689847204610BD3C1F050010B5044684
:10083000FFF7DEFF20460C2136F0EEF9204610BD12
:10084000064B10B5C0E9003100230446836011B1A6
:10085000084600F066F8204610BD00BF3C1F0500AA
:1008600070B5044630200E4636F0A4F931460546F0
:1008700000F0E6FA29462046FFF7E2FF204670BD69
:100880000346406808B100F043B8986808B100F02A
:100890006BBB0148704700BF58540500406808B161
:1008A00000F00CBB70474068704700001FB5012383
:1008B000044600930423FFF70FFE04A9064B2360B0
:1008C000002341F8043D04222046FFF71FFE034B9E
:1008D0002360204604B010BD801D0500901D05005A
:1008E00070470020704710B52021044636F094F977
:1008F000204610BD10B5054B044640F8043B01F0FE
:1009000067FE0023E361204610BD00BF4C1F0500B9
:10091000043001F097BE043001F096BE043001F0BF
:1009200095BEC3690133C36118467047C369013B73
:10093000C3611846704742F60300704790F82000E4
:100940007047406A7047806A7047808D704700002A
:1009500070B51546426AAA42A8BF2A460446828557
:1009600092B2806A0E463EF0FAFE94F82E300BB139
:10097000636AA38594F8203098060BD5A28E910760
:1009800008D5218EA38DA26A1848013189B200F0E2
:10099000CDFD70BDDA060BD5A38EDB0708D5218E01
:1009A000A38DA26A1148013189B200F079FDF0E708
:1009B00094F832300BB90120EBE721460C4802F0E5
:1009C0002BF92B46014632460A4801F051FF0748F1
:1009D00000F0FDFC0028EED1064801F095FE00284D
:1009E000E9D0044801F092FEE5E700BFDC080020F2
:1009F000BC0900206009002038B5054608460C46B1
:100A00003FF07BFD214602462846BDE83840FFF70F
:100A10009FBF01867047008E7047008E013080B204
:100A20007047806B7047836B994208D2C36B00227A
:100A3000914202D05B680132FAE7186870470020E3
:100A40007047000030B5114B03600B7903710B4602
:100A500001F1490453F8052FC0F805209B88A0F840
:100A60000930CB7AC3720B7B037300F10D0201F1E5
:100A70000D0353F8045B42F8045BA342F9D11B88D1
:100A8000138091F94B3080F84B3030BD081F0500C2
:100A900038B5044608200D4636F08CF80023C0E92E
:100AA000005363682BB960602368A0600133236042
:100AB00038BDA3685860F7E770B504461D46164672
:100AC000FFF718FFB5F5007F1A4B23602B46A8BF30
:100AD0004FF40073002163629DF8103084F82060A9
:100AE000A18584F82E30218684F8321084F83310E2
:100AF000A186C4E90E112164102204F144003EF0E5
:100B000052FE16F0300F0ED02C2036F053F80A4962
:100B10000646022304F1340200F0D6F8314604F10F
:100B20003800FFF7B5FF28463EF096FDA06220464C
:100B300070BD00BF681F0500581F050070B5044652
:100B4000406800252368AB4206D94668082136F084
:100B500063F801353046F5E70023C4E90033A360AC
:100B600070BD0000164B70B5044603600025A36BF2
:100B70009D4213D2E36B0022954202D05B680132A2
:100B8000FAE71E683046FFF7D1FE002804DC1EB1EC
:100B9000336830465B6898470135E8E704F138056B
:100BA0002846FFF7CBFFA06A08B13EF05DFD28465E
:100BB000FFF7C4FF2046FFF793FE204670BD00BF3D
:100BC000681F050010B50446FFF7CCFF20465421EE
:100BD00036F022F8204610BDF0B5C56C97B004463B
:100BE00017461E467DB103A8FFF72CFF2146684635
:100BF000FFF752FC694603A8A8476846FFF724FCA4
:100C000003A8FFF78FFCA16A1C9A394430463EF0D6
:100C1000A6FD17B0F0BD70B504460E461146012280
:100C200080F8332096B01A46FFF792FE256D85B105
:100C3000314603A8FFF706FF21466846FFF72CFC64
:100C4000694603A8A8476846FFF7FEFB03A8FFF71D
:100C500069FC16B070BD30B5838E02F0030293427A
:100C600097B0044617D08286002A0CBF4422402247
:100C7000024455687DB103A8FFF7E4FE21466846AB
:100C8000FFF70AFC694603A8A8476846FFF7DCFBA4
:100C900003A8FFF747FC17B030BD4FF4245070474E
:100CA00010B5034B03600446FFF71AFE204610BD43
:100CB0007C1F050010B50446FFF7F2FF20462C21EB
:100CC00035F0AAFF204610BD70B504461D461646F5
:100CD000FFF710FE064B2360B5F5007FA8BF4FF469
:100CE00000750023266265622385204670BD00BF23
:100CF0007C1F0500406A7047006A70470185704795
:100D0000704710B50421044635F086FF204610BD1B
:100D100008B5044801F068FF0348BDE8084002F048
:100D20009DB800BFBC090020280B002010B5044668
:100D300086B01C4802F088F828B92046FFF7E8FF83
:100D4000002006B010BD642004F064FE154802F0D7
:100D50000FF90028F1D105AB01930DF112030093B7
:100D600004AA0DF10E030DF10D010E4802F006F973
:100D70000028E2D14FF0FF326FF04043094802F003
:100D800031F90028D9D10DF10F020DF116010548F6
:100D900002F036F90028D0D1034801F0E3FF01202A
:100DA000CFE700BF280B0020BC090020014802F05B
:100DB000A9BA00BF280B002008B50846FFF760FD60
:100DC000BDE808400146014801F09ABC60090020D6
:100DD000014801F097BC00BF60090020014801F004
:100DE000DFBE00BFBC090020014801F0D7BF00BF33
:100DF000BC090020014801F089BC00BF6009002047
:100E0000022902D1024801F02FBD024801F092BB35
:100E100060090020DC0800200348044B044A05490F
:100E2000036035F020BD00BFD8080020901F0500EA
:100E300000020020010D01004FF420507047000017
:100E400010B50446FFF756FD044B23600023C4E9A8
:100E50000833C4E90A33204610BD00BFA01F0500B7
:100E6000018442847047008C7047408C7047406A10
:100E70007047436A994208D2836A0022914202D0A5
:100E80005B680132FAE7186870470020704738B590
:100E9000044608460D46FFF744FD082035F08AFE5B
:100EA0000023C0E90053A36A2BB9A062636AE06221
:100EB0000133636238BDE36A5860F7E710B5044652
:100EC0000846FFF72DFB014620B12046BDE8104043
:100ED000FFF7DDBF10BD70B50446406800252368EC
:100EE000AB4206D94668082135F096FE01353046FA
:100EF000F5E70023C4E90033A36070BD144B70B55F
:100F0000044603600025636A9D4213D2A36A00224F
:100F1000954202D05B680132FAE71E683046FFF75F
:100F200005FD002804DC1EB1336830465B68984735
:100F30000135E8E704F124052846FFF7CCFF2846F1
:100F4000FFF7C9FF2046FFF7CBFC204670BD00BF6E
:100F5000A01F050010B50446FFF7D0FF2046302142
:100F600035F05AFE204610BD4068704703690133D2
:100F70000361184670470369013B036118467047D7
:100F8000F0B5044685B00E46818A1F48174600F02A
:100F900037FA10B9002005B0F0BDA18A1A4800F058
:100FA0006BFA033885B2BD42A8BF3D462946E069C9
:100FB0003FF01CF9E0610028ECD0237E1A0717D51A
:100FC00003AB0193EBB20093628BA18A0E483346C8
:100FD00001F0B6FA0028DED09DF80C30012BD9D0F4
:100FE0002A463146E0693EF0BAFB25620120D2E78D
:100FF0005B07CFD5EBB20093628BA18A02483346E0
:1010000001F0B9FAECE700BFDC080020408B704724
:1010100070B50446036296B00D46C069194616467F
:101020003FF0E4F8E06110B9206216B070BD012312
:1010300084F824300023314684F82530226A3EF0BB
:101040008EFB666B002EF0D0194B03932B798DF835
:1010500010302B4605F1490153F8052FCDF811202A
:101060009B88ADF81530EB7A8DF817302B7B8DF817
:1010700018300DF1190205F10D0353F8040B42F875
:10108000040B8B42F9D11B88138095F84B308DF8F7
:10109000573021466846FFF70FFA694603A8B04764
:1010A0006846FFF7D1F903A8FFF73CFABDE700BF98
:1010B000081F0500406870474368994208D283685A
:1010C0000022914202D05B680132FAE7186870474B
:1010D00000207047808A7047C08A7047406A704716
:1010E000436A994208D2836A0022914202D05B6827
:1010F0000132FAE7186870470020704710B5044BBA
:1011000003600446006C08B13EF0AEFA204610BD04
:10111000B41F050010B50446FFF7F0FF20465C2120
:1011200035F07AFD204610BD1FB58DF80C3002ABAE
:101130008DF80910ADF80A2000930146012405231B
:10114000042203488DF8084002F0E0F804B010BD16
:10115000280B0020114B036041F288331721836074
:10116000002330B58180C3870364A0F8443000F1C8
:10117000100200F140044FF6FF7522F8045C02F8FB
:10118000023C02F8013C13609380D18093601032DE
:10119000A242F2D14365836530BD00BFB41F050094
:1011A0008180704770B5858994B04FF6FF74A54271
:1011B0001646189A07D0858BA54220D0858DA5426A
:1011C0001BD1022400E0002400EB041501342401AB
:1011D000A9810119AE731726CE80EB7315680551EE
:1011E00094888C80446D44B1194601A8FFF72EFA0B
:1011F00001A8A04701A8FFF795F914B070BD01241C
:10120000E2E700002DE9F04F00230446A9B098461C
:101210004FF0FF354FF6FF7004EB031292898A42BC
:1012200008BF1D46824203F1010318BF08F10108FF
:10123000032BF1D16B1C00F0A3806E1C2F01E3196E
:10124000360104EB06094A46D97B02A8FFF7FEF9EE
:10125000B8F1010F4FD1DFF834A14FF0000842F68A
:10126000030B1FFA88F15046019101F0A8FC019987
:1012700088423CD9504601F0CAFC0268019092684D
:1012800090475845019B2FD13F4A15929DF80C205D
:101290008DF8582028AA0DF1510052F8931DCDF871
:1012A00059109288ADF85D209DF813208DF85F20CD
:1012B0009DF814208DF860200DF161010DF11502EB
:1012C00052F804CB41F804CB8242F9D112880A804B
:1012D0009DF853208DF89F201846002215A9FFF78E
:1012E000BAFC15A8FFF71EF908F10108B9E70023B9
:1012F000E387A4F84430A16D61B3234B15939DF8A7
:101300000C308DF8583028AB0DF1510053F8932D67
:10131000CDF859209B88ADF85D309DF813308DF8DD
:101320005F309DF814308DF860300DF161020DF1E1
:10133000150353F804CB42F804CB8342F9D11B8840
:1013400013809DF853308DF89F3015A8884715A855
:10135000FFF7E8F827444FF6FF73FB600023A35123
:1013600004EB0514A9F80430A0691723E38210B137
:1013700003685B6898470023A36102A8FFF7D2F8CF
:1013800029B0BDE8F08F00BF081F0500BC09002090
:101390002DE9F04106460F46904600F11005002465
:1013A00015F8013CBB420AD10622414628463EF0D0
:1013B000C7F920B906EB0414A089BDE8F081013417
:1013C000032C05F11005EBD14FF6FF70F5E782898C
:1013D0004FF6FF739A4207D1838B934204D1808DDD
:1013E000C01A18BF012070470120704708B5FFF7E9
:1013F000CFFF4FF6FF73C01A18BF012008BD0000D1
:1014000038B5054608480C4601F07CFFAB89A3427D
:1014100007D0AB8BA34204D0A88D031B5842584180
:1014200038BD0120FCE700BF280B0020F8B50546B9
:10143000FFF7AEFF4FF6FF739842044618D00146FF
:101440000C480C4E02F02EF804F0DEFA074604F0C9
:10145000DBFAAB68C01B98420AD2304601F052FF5B
:1014600021462846FFF7CCFF0028F0D10120F8BD27
:101470000020FCE7280B002083898B420AD0838B55
:101480008B4209D0838D8B4208D1022300EB0310DD
:10149000C08A70470023F9E70123F7E71720704758
:1014A0002DE9F04F85B002AF1D4600F130038946AB
:1014B000924604467B600026B4F80C804FF6FF731A
:1014C0009845EB4624D0E28AD31DDB08033AADB23F
:1014D00092B2ABEBC3039D46954228BF15464FF031
:1014E0001B0102AB8DF80810ADF809902A46514651
:1014F0000DF10B003B603EF032F93B680093EA1CB3
:10150000D3B241460422084801F000FF0136DD460F
:101510007B6810349C42CFD1002ED4BF0020012024
:101520000C37BD46BDE8F08F280B00202DE9F04FA9
:1015300087B002AF1D46DFF8B490796000F1400338
:101540000646934600F11004BB604FF0000834F8E3
:1015500004ACC7F80CD04FF6FF739A4539D0E28837
:10156000D31D6946DB08A1EBC303033A9D46ADB228
:1015700092B295424FF01D0128BF15468DF8081014
:10158000B988ADF8091002AB2A4659460DF10B0097
:101590003B603EF0E4F8002286F83C203B68009374
:1015A000EA1CD3B251460422484601F0AFFE96F839
:1015B0003C3053B9484601F0A5FE224614F8011C00
:1015C0003046FFF713FF0028F1D1D7F80CD008F10F
:1015D0000108BB681034A342B9D1B8F1000FD4BFE1
:1015E000002001201437BD46BDE8F08F280B0020F5
:1015F000042A13D1B0F848208A420FD190F84A202B
:101600001978013A8A4209D1C26C01211170C26C69
:101610001B68C2F80130052380F850307047000085
:10162000022A1FB50446084606D0042300220221E0
:10163000FFF77AFD04B010BD1B88A188994228BF2E
:101640001946A389834215D0A38B834214D0A38D5E
:10165000834202D104EB0214E18203AA0323ADF812
:101660000D1000920146042204488DF80C3001F060
:101670004DFEDFE70022EDE70122EBE7280B00201B
:10168000022A10B51CD184898C421AD0848B8C42DA
:1016900019D0848D8C4203D100EB02121C88D482B5
:1016A000B0F848208A420BD190F84A20032A07D18B
:1016B000C16C0A70C16C1B88A1F8013080F8502001
:1016C00010BD0022E8E70122E6E700002DE9F04F17
:1016D00087B002AF042BFA60BA6BC7F808D08A460D
:1016E000128808D0042319465046FFF71DFD143711
:1016F000BD46BDE8F08FFB6807336946DB08A1EB08
:10170000C3039D460DF1080805238DF80830013A02
:10171000002388F8013094B20225394801F04FFACD
:10172000844244D2BB6B5B88A34240D921463448F3
:1017300001F06DFA026892688346904742F6030210
:1017400001349042A4B23ED05846FFF7E7F8022891
:1017500006464FF0000214BF0221012198F8010053
:1017600008B988F8011098F8010088421FD105F1E6
:1017700002091FFA89F908EB090328F805407B6084
:1017800052BBDBF80020584692689047B0F5245FC2
:1017900022D0DBF8002058469268904728F80900CC
:1017A0000435ADB20236FB682E44B342B5DA022DE1
:1017B0001DD1BA6B0A23128804215046FFF7B4FCEE
:1017C000D7F808D093E75846FFF727F98442BBD1F2
:1017D000012202261146C1E75846FFF79CF832461F
:1017E000014678683DF0BBFF09EB0605D9E7CDF867
:1017F0000080EBB204225146024801F087FDDFE78A
:10180000BC090020280B0020012A38B504461546E3
:1018100011D9B0F8480088420DD194F84A00052843
:1018200009D1E16C0870E06C1946013001353DF0DA
:1018300096FF84F8505038BD2DE9F04F87B002AFC5
:10184000052BBE6BC7F808D093468946328808D866
:10185000042307214846FFF767FC1437BD46BDE85F
:10186000F08F0BF107016846C908A0EBC1018D4656
:1018700007218DF80810B188B1F5205F0DF1080A35
:1018800008D00A23328807214846FFF74DFCD7F8D5
:1018900008D0E2E7063B9BB2FB60013AB31D94B26D
:1018A00001257B601F4801F08AF984422FD273889A
:1018B000A3422CD921461B4801F0A9F903689B6873
:1018C00080469847B38883421BD14046FFF726F8ED
:1018D000FB68984215D14046FFF71DF8FA68796811
:1018E0003DF02EFF68B94046FFF7BDFA2AF8050023
:1018F0004046FFF7BAFAAB1C9BB204352AF8030046
:10190000ADB2EB1C9B4502DD0134A4B2CAE7012D48
:10191000B7D0CDF800A0EBB204224946024801F04E
:10192000F5FCB4E7BC090020280B00202DE9F04F9E
:1019300087B002AF062BBA60BA6BC7F80CD08A46E4
:10194000128805D1BB6B9B88A3F52053012B0AD9C4
:10195000102310215046FFF7E7FBD7F80CD01437BF
:10196000BD46BDE8F08FBB6807336946DB08A1EBD5
:10197000C3039D4602AE11238DF80830013A0023BF
:10198000737095B202242A4801F019F9854241D2B8
:10199000BB6B5B88AB423DD92946254801F037F93E
:1019A000BB6BB3F8048003689B6881469847804509
:1019B0002DD14846FEF7B2FF73780228834614BF44
:1019C0004FF014084FF006080BB986F801807378C1
:1019D00043451FD14846FFF746FA30534846FFF7C4
:1019E00044FAA31C9BB20434A4B2F0523319484603
:1019F0007B60FEF790FF7B6801465A4618465C44C0
:101A00003DF0ADFEA4B2BB68A044434502DB013506
:101A1000ADB2B8E7022C03D1BA6B0A23128898E75B
:101A20000096E3B204225146024801F06FFC94E7AD
:101A3000BC090020280B0020012A38B504461546B1
:101A400011D9B0F8480088420DD194F84A00112805
:101A500009D1E16C0870E06C1946013001353DF0A8
:101A60007EFE84F8505038BD2DE9F04F9BB098466B
:101A700002AFB8F10A0F1446B8600D4697F88820F7
:101A8000D7F88C30C7F80CD005D1022A11D0042326
:101A90000022414604E0042A0BD0042300220C213A
:101AA0002846FFF741FBD7F80CD06437BD46BDE8A8
:101AB000F08FB8F10A0FB3F80090684814BF5E8841
:101AC000002601F07CF809F1FF318BB2834202D984
:101AD0000A234A46DDE704F1FF3A0734E4086B467F
:101AE000A3EBC4039D46B8F10A0FEB460CBF0B23D2
:101AF0000D230BF8083F594801F089F803689B68EB
:101B000004469847B0F5205F1FD11EB104234A4612
:101B10000B21C5E72046FEF701FF81462046FEF770
:101B2000FAFE4A4601460DF109003DF018FE09F1A2
:101B300001091FFA89F9CDF800B05FFA89F3042290
:101B40002946474801F0E2FBADE742F6030398421D
:101B500063D12046FEF75FFF48451BD10EB10B2332
:101B6000B7E72046FEF7EAFE8BF801002046FEF7B5
:101B700054FFABF802002046FEF7D0FE8146204617
:101B8000FEF7C9FE4A46014603A83DF0E8FD09F10B
:101B90000409CEE72046FEF7D1FE830701D40223D5
:101BA00097E72046FEF7D1FE83B29E4201D307237A
:101BB0008FE780B2801B8245A8BF82461FFA8AF356
:101BC0007B60BB6803F110084033BB604FF0010934
:101BD0001FFA8AFA38F8043CAB4218D1424618F88A
:101BE000011C07F11400FEF731FD0BEB090332462F
:101BF00007F114012046CDF800A0FEF7EDFF07F134
:101C00001400FEF78FFC7B6899441FFA89F9BB68C2
:101C100008F110089845DDD18DE7B0F5245F1AD1A1
:101C20002046FFF767F883B29E42C0D280B2A0EB95
:101C30000609CA452046A8BFCA46FFF75DF81FFA45
:101C40008AF281190AF1010A0DF109003DF087FDC0
:101C50001FFA8AF96FE74FF001096CE7BC09002011
:101C6000280B002038B50446B0F8480088421546D5
:101C70000DD194F84A100B2909D1E06C0170E06C89
:101C80001946013001353DF06AFD84F8505038BDE9
:101C90002DE9F04F87B002AF9146BA6BF960062B81
:101CA000C7F808D0128808D004230821F868FFF785
:101CB0003BFA1437BD46BDE8F08F09F107036946CA
:101CC000DB08A1EBC3039D460DF1080809238DF83D
:101CD0000830002388F80130BB6B013A043395B219
:101CE00002247B60624800F06AFF854280F08180B8
:101CF000BB6B5B88AB427CD929465D4800F087FF0F
:101D000003689B6806469847BB6B9B888342336891
:101D100005F1010A1FFA8AFA9B68304675D1984787
:101D200042F6030398423DD13046FEF776FE8245E7
:101D300035D03046FEF7F2FD98F801200228034620
:101D400014BF4FF0150B4FF0070B0AB988F801B01C
:101D500098F801203B605A454BD128F804A0304642
:101D6000FEF7ECFDA21CE11C92B289B2023508F824
:101D7000020028F801503046FEF7CDFD05343B68DF
:101D8000A4B208EB04051A46014628463DF0E7FCDC
:101D90003B681C44A4B2A344D9452ADB554601350F
:101DA000ADB29FE7336830469B68984742F602130E
:101DB0009842F4D128F804A03046FEF79BFF023485
:101DC000A4B2A9EB040980B21FFA89F9814528BFA2
:101DD0008146304608EB0405FEF78EFF4A46014671
:101DE0004C44284609F102093DF0B9FCA4B288F838
:101DF0000190022C33D1BA6BF86812880A230821AB
:101E0000FFF792F9D7F808D053E7984742F6030353
:101E10009842C4D13046FEF781FD02288346BED1E8
:101E20003046FEF778FD5A46014678683DF088FC5A
:101E30000028B4D128F804A03046FEF786FD02340D
:101E4000A4B2A9EB04091FFA89F980B2814528BF21
:101E50008146304608EB0405FEF775FDBEE7CDF878
:101E60000080E3B20422F968024801F04FFAC9E7A2
:101E7000BC090020280B002038B5044615468AB15D
:101E8000B0F8480088420DD194F84A00092809D1D9
:101E9000E16C0870E06C1946013001353DF05FFCE3
:101EA00084F8505038BD00002DE9F04F99B002AFD2
:101EB000064697F880A07A60BAF1010F0D461C46DD
:101EC0000BD8122B05D10423002221462846FFF708
:101ED0002BF95C37BD46BDE8F08FD7F88430564803
:101EE000B3F8009000F06BFE09F1FF318BB2834232
:101EF00004D9122CEDD10A234A46E6E74E4800F0F9
:101F000086FE03689B688046984742F6030B584557
:101F10004DD14046FEF781FD8145404601D1122C4E
:101F200036D1FEF70BFD02074ED5B389AB4234D153
:101F300000235A1C06EB031306EB0212D97B07F1B0
:101F40000C00FEF783FBD7F88420AAF10203DBB272
:101F5000023207F10C014046FEF75DFE07F10C006E
:101F6000FEF7E0FA122CB4D17B68344807336C4694
:101F7000DB08A4EBC3039D4602AB13228DF80820B7
:101F8000009304220123294601F0C0F9A546A0E7E9
:101F9000FEF7D4FC43079CD5C7E7B38BAB4204D014
:101FA000B38DAB42DED10223C3E70123C1E7D8F8EA
:101FB000003040469B689847B0F5245F04D1404606
:101FC000FEF7ACFC022803D0122C82D1032393E746
:101FD0004046FEF7A0FC028842F602139A42F3D173
:101FE000A9F10201144800F012FE03689B688046C4
:101FF00098475845E8D1B389AB4207D0B38BAB4281
:1020000018D0B38DAB42ADD1022300E000235A1C9F
:1020100006EB031306EB0212D97B07F10C00FEF767
:1020200015FBD7F8843007F10C015A884046FEF7BB
:1020300012FE93E70123EAE7BC090020280B0020E9
:1020400062B9B0F848308B4208D190F84A30132B6F
:1020500001BFC26C1370012380F85030704700003C
:102060002DE9F04F87B002AF032B04460D467A608E
:102070001E46C7F80CD00BD8042300221621284690
:10208000FFF752F8D7F80CD01437BD46BDE8F08FF3
:10209000BB6B40481B883B811FFA83F8BB6BB3F8CE
:1020A00002B000F08CFD08F1FF318BB2834202D9FF
:1020B0000A234246E2E7374800F0A9FD03689B681F
:1020C0008146984742F60303984201D00B23F0E77C
:1020D0004846FEF7A2FC40458246F7D14846FEF747
:1020E0002DFC030702D403235246C7E7E38FC3B98D
:1020F00048463B60FEF725FC01468246206C3EF0D8
:1021000075F83B683A89E2872064A4F84430524667
:1021100019463DF048FBB4F844305B4505D0072331
:10212000C7E75345F7D00E23DEE7331F5FFA83FA84
:102130000BEB0A024846BA60FEF703FCBA6880B2AD
:102140008242ECDCBB6B206C5246191D58443DF0BA
:1021500006FBB4F84420B96B0AEB0203A4F8443040
:102160007B6807336A46DB08A2EBC3039D4617234F
:102170008DF8083032460DF109003DF0F0FA02AC5E
:10218000731C0094DBB204222946034801F0BEF818
:1021900078E700BFBC090020280B00202DE9F0479C
:1021A000012B96B0044602AF0E4690461D46E94606
:1021B00009D00423002218213046FEF7B5FF50371E
:1021C000BD46BDE8F087C18F29B33B6F1B78DB07A5
:1021D00021D501391E4800F01AFDA389B342824679
:1021E00032D0A38BB34231D0A38DB34213D102239B
:1021F0005A1C04EB031304EB0212D97B381DFEF7C3
:1022000025FA5046B4F84430226C391DFEF703FD20
:10221000381DFEF787F9002308F10708E387A4F8C3
:1022200044304FEAD8086B46A3EBC8039D4602AB87
:1022300019228DF808200093042201233146054815
:1022400001F064F8CD46BAE70023D1E72B46CFE78B
:10225000BC090020280B00202DE9F04F9DB0012B78
:1022600007468A460792039363D9269B1E8800F18E
:10227000300305460493F6B2AB89534547D1AC69A8
:10228000002C48D02046FEF715FF4FF0000B80468B
:10229000D8453CDD59462046FEF70EFF8146FEF745
:1022A00019FFB04230D24846FEF716FF86422BD8BF
:1022B0004846FEF713FF0BF1010307EB03130590EC
:1022C00006934FF0000807EB0B14059B43451EDDFA
:1022D00041464846FEF704FF8346FEF797FE8642D6
:1022E0000FD1069AE17B09A8FEF7B0F9039B269A65
:1022F0005846023B023209A9FEF78AFE09A8FEF7FA
:1023000011F908F10108E0E70BF1010BC0E7049BAC
:102310001035AB42B0D1079B1D2B0AD11CAB1E223E
:1023200003F84C2D5146009304220123024800F08B
:10233000EDFF1DB0BDE8F08F280B00207FB513F82E
:10234000014B013ACDE9023306460D46D2B2FFF702
:1023500093F80C2C029B00F0968034D8052C79D091
:1023600019D8022C6AD00AD8012C61D00623002289
:102370002146284604B0BDE87040FEF7D5BE032CC8
:1023800062D0042CF2D10093134602463046FFF788
:102390009DF904B070BD092C69D00AD8062C5FD015
:1023A000082CE3D10093134602463046FFF770FC39
:1023B000EFE70A2C67D00B2CD8D1304604B0BDE82B
:1023C0007040FFF74FBC162C66D015D8112C54D096
:1023D00008D8102CCAD10093134602463046FFF7A6
:1023E000A5FAD6E7122C1AD0132CBFD1304604B070
:1023F000BDE87040FFF724BE1D2C04D00BD8182C6C
:1024000051D01B2CB2D100932946134630462246A8
:10241000FFF722FFBDE71E2C4CD0522CA6D1CDE9F0
:1024200000232946024623463046FFF73DFDB0E72C
:10243000304604B0BDE87040FFF7DAB8304604B06B
:10244000BDE87040FFF7ECB8304604B0BDE870401E
:10245000FFF716B9304604B0BDE87040FFF7D4B9B5
:102460000093134602463046FFF7E6F991E73046FF
:1024700004B0BDE87040FFF7FFBC304604B0BDE8D3
:102480007040FFF7D9BACDE900232946024623461A
:102490003046FFF7E9FA7CE70093134602463046E0
:1024A000FFF7DEFD75E70093134602463046FFF75F
:1024B00075FE6EE7012386F83C306AE7F7B50546FE
:1024C000089CA5F8481010780092013085F84A0061
:1024D000002085F85000EC64DBB2042214480E465C
:1024E00000F014FF0CB303F08FFA114F044603F011
:1024F0008BFAAB68001B984211D2384600F002FFFD
:1025000031462846FEF77CFF48B195F85000002878
:10251000EDD04FF6FF73A5F8483003B0F0BD4FF68D
:10252000FF73A5F848300020F7E72046F5E700BF25
:10253000280B002001299CBF00EB810042657047F9
:1025400070B5C4B00E469DF82041ADF80D201221A3
:1025500005468DF80C10224619460DF10F003DF08E
:10256000FEF8499B009303AAE31C31462846FFF777
:10257000A5FF44B070BD70B5C4B00E469DF82041B3
:10258000ADF80D20522105468DF80C102246194653
:102590000DF10F003DF0E3F80023009303AAE31CC4
:1025A00031462846FFF78AFF44B070BD10B5054C90
:1025B0002046FEF7CFFD2046034A0449BDE81040FF
:1025C00034F051B9DC08002000020020FD100100A9
:1025D00073B5002504460E4640F8041B1022294618
:1025E000ADF804508DF806503DF0DDF82575304605
:1025F0003DF083FF451E002D237D1ADB0F2B1FD8D6
:10260000735D2D2B06EB050202D10135023DF2E789
:1026100012F8012C8DF804200021102201A88DF859
:1026200005303DF0FFFF237DE21801331071237563
:10263000ECE7022B04D802232046237502B070BDBC
:102640001023F9E70068704704307047007D704739
:102650002DE9F047144C80464D1E4FF4AA594FF017
:102660002D0A6A1C1AD018F8057010222146380964
:1026700001F0F3FC1022611C07F00F0001F0EDFCEB
:102680000C2D04F1020606DC29FA05F3DB0744BF32
:10269000E61C84F802A0013D3446E2E700232370E3
:1026A0000148BDE8F08700BF3809002038B5A022F6
:1026B000114D124B03600283002301220446037173
:1026C0004371C0E90233C0E904338276C0E90833BC
:1026D000C0E90A33C0E90C332946383003F0E7F883
:1026E000294604F1440003F0E2F8294604F15000C1
:1026F00003F0DDF8204638BD58540500C41F05001E
:1027000081607047416170470079704770B5054638
:1027100098B006A8AA7E00230693838022B96B692D
:10272000002B14BF022303232A8B002107242971C5
:102730000491CDE90204CDE900114A48114600F0A8
:102740007DFC10B1002018B070BD4FF48173A968F2
:10275000ADF8203006238DF82230002971D010A862
:10276000FFF736FF10A8FFF771FF431C02288DF812
:10277000233004468CBF0623022310A88DF8243092
:10278000FFF762FF224601460DF125003CF0E7FF0E
:10279000631DDBB2296A11B36A6A002A1FDDD01CEF
:1027A00098421CDA18A8D6B21844F41C00F8404C21
:1027B000581C18AC54FA80F0162400F8404C0DF167
:1027C000600C981C5CFA80F0AC8B20F8404C1C1D0F
:1027D000E4B208AB18193CF0C2FF3319DBB208AA07
:1027E0001946204800F050FC0028ABD16C69002C41
:1027F00035D020463DF081FE1D2893BF02461D22A4
:1028000008230923D6B28CBF8DF841308DF84130B2
:102810002146731C0DF142008DF840303CF09FFFC3
:10282000B11CC9B210AA0F4800F04AFC002889D197
:1028300001210C4800F060FC002883D128710120A0
:1028400081E7E96849B12A693AB1D4B2631C8DF8CD
:102850002330FF238DF8243096E703239AE721469F
:10286000E0E700BF280B0020022908BF8262704702
:102870008183C0E9082370477FB5836D04460D4608
:1028800083B10B6801A89B69984701A904F1500026
:1028900003F07CF8064601A802F0C3FF16B9002039
:1028A00004B070BD236C73B1294601A8FDF7E2FEA8
:1028B00001A904F1380003F05CF8064601A802F013
:1028C000B0FF002EEBD0E36C83B1294601A8FDF7E1
:1028D0004BFF01A904F1440003F058F8044601A895
:1028E00002F09FFF201C18BF0120D9E70120D7E785
:1028F00003688B4208D9436800228A4202D05B6891
:102900000132FAE7186870470020704770B5044636
:10291000406800252368AB4206D94668082134F098
:102920007BF901353046F5E70023C4E90033A360A5
:1029300070BD000010B50A4B044640F8503B02F051
:1029400070FF04F1440002F06CFF04F1380002F063
:1029500068FF04F12C00FFF7D9FF204610BD00BF2F
:10296000C41F050010B50446FFF7E4FF20465C21B4
:1029700034F052F9204610BD03688B4270B504460E
:102980001AD90022406813468A42456803D003469C
:1029900001322846F8E7066863B96560A26882429A
:1029A00008BFA360082134F037F92368013B236096
:1029B000304670BD5D60F1E70026F9E72DE9F04F84
:1029C0009B46ABB043799DF8D0809DF9D8900446E2
:1029D0000F46924613B3856A25B3032921D15A467F
:1029E000514604A8FDF732FECDF80090359B4246D3
:1029F000394604A8FDF7CFFE04A92046FFF73CFFA7
:102A000048B104A917A8A46AFEF71CF817A8A047A4
:102A100017A8FDF787FD04A8FDF784FD2BB0BDE8DE
:102A2000F08F002504F12C03E26A95420DD218467E
:102A300029460393FFF75CFF5A4651460646FDF7C9
:102A40009AFE039B00283AD0BEB9E36A042BE5D86E
:102A50004C2034F0AFF85A4651460646FDF7F6FDD5
:102A6000082034F0A7F80023C0E90063236B43BBC0
:102A70002063E56A60636B1CE362042F24D0CDF809
:102A80000090359B424639463046FDF784FE30467D
:102A9000FDF7A7FE0028C1D0A36A002BBED03146A7
:102AA00004A8FDF7CFFF294604F12C00FFF764FFCF
:102AB000002EA1D0336830465B6898479CE701350B
:102AC000B2E7636B5860D4E74B46359A41463046CF
:102AD000FDF772FEDBE7000010B5054C2046FFF75E
:102AE000E5FD2046034A0449BDE8104033F0BBBE73
:102AF0006009002000020020352901002DE9F3477C
:102B0000214B03600446002500F11006C0E9015581
:102B1000C56004F1400A1D493046FEF791F9009561
:102B2000142302221A495046FDF7C6FF04F1940906
:102B300002231A4604F1E807009516494846FDF7B6
:102B4000BBFF04F58C7814493846FEF779F9042365
:102B50002022124900954046FDF7AEFF3046FDF7B2
:102B6000E0FE3846FDF7DDFE51463046FEF78FF9B0
:102B700049463046FEF78BF938464146FEF787F95D
:102B8000204602B0BDE8F087F81F0500D41F0500FD
:102B9000D91F0500DE1F0500E31F0500E81F050023
:102BA0004030FDF729BF07B502AB022223F8021D12
:102BB00094301946FDF7CCFE03B05DF804FB406885
:102BC000704770B50446406800252368AB4206D9BB
:102BD0004668082134F020F801353046F5E7002337
:102BE000C4E90033A36070BD08B50430FFF7E9FF06
:102BF00008BD03688B4208D9436800228A4202D08C
:102C00005B680132FAE7186870470020704708B522
:102C10000430FFF7EEFF08BD2DE9F8430025074615
:102C200088462C4600F104097B689D4210D2294653
:102C30004846FFF7DEFF03689B6806469847B0F5F5
:102C4000205F02D0B04503D0264601353446EBE77D
:102C500020463CB1FDF762FE0228204604D1FDF774
:102C60005AFE0088BDE8F883FDF755FE4089F9E774
:102C7000F8B507460024061D7B689C420FD221460A
:102C80003046FFF7B6FF0546FDF750FE002804DC8E
:102C90001DB12B6828465B6898470134ECE7304645
:102CA000FFF78FFFF8BD38B5044608200D4633F016
:102CB00081FF0023C0E9005363682BB9606023687B
:102CC000A0600133236038BDA3685860F7E72DE9A1
:102CD000F84F05460C46084605F10408FDF721FEAD
:102CE00021464046FFF7DFFFB5F804B00027204635
:102CF000FEF7BDF8B8422DD939462046FEF7B9F89F
:102D00000646FDF70EFE31464046FFF7CCFFA98888
:102D10003046FDF77EFE31464046FFF7C4FF4FF0D8
:102D200000093046FDF77DFE484511D94946304639
:102D3000FDF779FE8246FDF7F4FD51464046FFF768
:102D4000B2FFA9885046FDF7D9FF09F10109E8E76C
:102D50000137CCE7AA8859462046BDE8F84FFEF770
:102D60007FB8000010B50C4904464030FDF744FE22
:102D700000212046FFF717FF2046FFF779FF04F1F7
:102D800010012046FFF7A3FF04F1E8012046BDE84B
:102D90001040FFF79CBF00BFCC1F050010B50446D4
:102DA0000846FDF780FD014620B12046BDE81040F1
:102DB000FFF78DBF10BD000010B5054C2046FFF792
:102DC0009DFE2046034A0449BDE8104033F04BBD48
:102DD000BC09002000020020DD2D01000F4B10B5C2
:102DE00004460360FFF744FF04F58C70FDF7BAFE5C
:102DF00004F1E800FEF782F804F19400FDF7B2FE5A
:102E000004F14000FDF7AEFE04F11000FEF776F885
:102E1000201DFFF7D6FE204610BD00BFF81F05009D
:102E200010B50446FFF7DAFF20464FF4B67133F0D1
:102E3000F3FE204610BD704710B54FF408710446EC
:102E400033F0EAFE204610BD00238360024B186871
:102E500003681B68184700BF68200500024B18680C
:102E600003685B68184700BF682005003AB190F816
:102E70001D31934203DD9B1A80F81D3170470023FA
:102E8000FAE700002DE9F0410546406816461C4669
:102E9000E8B102F0B1FB013CDFF838802644A642DD
:102EA00068680CD014F8017F0F2F02D8414602F059
:102EB000A3FB10223946686802F0EAFBEFE702F054
:102EC000A3FB68680368BDE8F041DB681847BDE80C
:102ED000F08100BFD32005002DE9F0410D461146D9
:102EE00082B00B3101F4FC7100AF0446ADEB010D73
:102EF00001203871A7F80550FA716846796840F8E2
:102F0000041B1946161D3CF02AFC6368E8462BB1E9
:102F10006B46F2B214492046FFF7B4FF134B186812
:102F2000036832469B69414698474FF6FF73A4F801
:102F30000E314FF0FF33C4F8103102F065FD00F59B
:102F40007A76B4F80E31AB4207D002F05DFDB042A4
:102F500003D2204600F0D6F9F3E7D4F81001083781
:102F6000BD46BDE8F08100BF1320050068200500C4
:102F700000231A4640F60341FFF7AEBFF8B51C46E2
:102F800000230E46154641F201011A460746FFF797
:102F9000A3FF70B9D7F818311A783270B3F801204E
:102FA0002A80DA782270069A99881180DA88079B3D
:102FB0001A80F8BD13B502AB022223F8021D41F2BC
:102FC00005410446FFF788FF50B9D4F81831BDF821
:102FD00006201988914203D193F9020002B010BD76
:102FE0007F20FBE707B502A961E9022308220B460F
:102FF00040F60141FFF770FF03B05DF804FB0000ED
:10300000F8B500230D46174642F202011A4606465D
:10301000FFF762FF044668B9D6F8183106481A88E7
:103020002A809B783B7086F81C312988093989B23F
:10303000FEF7B6F82046F8BDDC0800201FB5089C56
:103040008DF804309DF818308DF805309DF81C304F
:103050008DF806302368CDF80730A388ADF80B3023
:103060009DF824308DF80D309DF82830ADF8001013
:10307000ADF802208DF80E300F226B4642F20601A9
:10308000FFF72AFF04B010BDF0B5202489B00D462B
:10309000064617460021224668463CF084FB2A4635
:1030A00039460DF101008DF800503CF058FB6B469D
:1030B000224642F208013046FFF70EFF09B0F0BD8C
:1030C000F0B5202489B00D46064617460021224659
:1030D00068463CF068FB2A4639460DF101008DF840
:1030E00000503CF03CFB6B46224642F20901304660
:1030F000FFF7F2FE09B0F0BD07B502AB012203F8FD
:10310000011D42F20A01FFF7E7FE03B05DF804FB80
:1031100070B51378052B86B00546144613D1B4F864
:10312000031052793F48FEF76DF8B4F80310627946
:103130003D48C9B200F0EEFB3C48012106B0BDE8B5
:103140007040FFF7D9BF0E2B0FD1B2F80330A0F8B3
:103150000E315379C0F8103153780634043B80F8AF
:103160001431C0F8184106B070BD0F2B09D19388F7
:10317000A0F80E319378C0F81031002380F8143194
:10318000F1E7132B0FD193780734D61C04EB83049B
:103190000436A642E7D036F8022C36F8041C28463E
:1031A000FFF764FEF4E73E2BDDD19378012B23D1AA
:1031B000D378002BD7D1207DD379A18802F10805DF
:1031C00092790490608A0390208A0290E089CDE988
:1031D00000501448FDF7E6FF207DE379A279A1882D
:1031E0000490608A0390208A0290E089CDE9005023
:1031F0000D4800F067FBB6E7022BB4D1D378012B62
:10320000B1D1137B21795279E01890F90D00029029
:1032100004F10D00CDE90030A31D0548FFF7CEFBFA
:10322000A1E700BFDC080020300F0020280B0020A1
:1032300060090020304B2DE9F04104461D6819B1AA
:103240002B6828469B6898472C4FDFF8B4800026EF
:103250002B682846DB68984700284BD02B68284607
:103260005B699847A3685A1C2344C1B2A2601973D2
:10327000237B022B1BD1052AEADD217CE37B03EBB8
:10328000012304339A42E3DD636833B104F10C0394
:10329000D2B241462046FFF7F5FDA168A66001398C
:1032A00004F10D02C9B2204600F07AF8D0E7042BF1
:1032B00018D1032ACCDDA37B02339A42C8DD6368B0
:1032C00033B104F10C03D2B239462046FFF7DAFDE0
:1032D000A168A660013904F10D02C9B22046FFF7CA
:1032E00017FFB5E76068A6600028B1D0102202F091
:1032F000D1F9ADE7BDE8F08168200500392005006F
:10330000262005000021FFF795BF00002DE9F047BA
:10331000044600AF8A4691461D4694F81D2194F854
:103320001C319A4203D32046FFF7ECFFF5E705F185
:10333000100303F4FC73ADEB030D02238DF8003092
:103340002B1DDBB22A46396AADF803300DF10900B6
:10335000ADF801A0ADF80550ADF807903CF0FFF9CD
:10336000636805F10906E8462BB16B46F2B20A49DB
:103370002046FFF787FD94F81D31013384F81D3195
:10338000064B1868036832469B69414698470020FF
:10339000BD46BDE8F08700BF00200500682005009D
:1033A000F0B5154616885288AB88111F994287B030
:1033B00004464FEA163609D0012E00F58F771DD04E
:1033C00000F10D01043238463CF0C9F96A88AB8837
:1033D000043A9A4210D1E888298883B2042BC1F3B9
:1033E0000B011CD1012ED2B20CBF04F5937304F172
:1033F00015031B48FEF7A2FF07B0F0BDB0F820018F
:1034000000F5917004F1110120443CF0A8F96A889C
:10341000B4F820311344A4F820313D46D6E7052BFB
:1034200006D104F11503D2B20E4800F0ADFAE3E77D
:1034300000220392ADF8142001228DF80C20062200
:1034400003ABADF80E200222ADF81020ADF812004B
:10345000009305220A232046FFF758FFCCE700BF60
:10346000DC080020300F00201FB5ADF80430BDF897
:103470001830ADF80630BDF81C30ADF80830042324
:10348000ADF80A300623ADF80010ADF80220ADF813
:103490000C300E226B4642F21301FFF71DFD05B002
:1034A0005DF804FB07B513238DF8063002AB032249
:1034B00023F8041D40F20641FFF70EFD03B05DF84E
:1034C00004FB00000548064B0360064A064900233A
:1034D000C0E9013380F81D3133F0C5B9280B002055
:1034E0005420050000020020372E01007047D0F85C
:1034F0000831D0F80C01181A48BF00F580707047E9
:10350000D0F80C21D0F808319A421DBFD0F80C3108
:10351000C018007A4FF0FF307047D0F80C21D0F877
:1035200008319A420BD0D0F80C3103441A7AD0F803
:103530000C310133DBB2C0F80C31104670474FF04C
:10354000FF3070470368184708B10B680360704785
:10355000704710B54FF48871044633F05DFB204688
:1035600010BD2DE9F04F8BB031F0A2FD014602A84D
:1035700003F0D7F802A803F07BF80024002542F2FC
:103580000F7A4FF0000B02A803F09DF824184D416C
:1035900002A803F0B5F842F2107200232046294633
:1035A0003BF082FB50B115F031FA204629464FF42A
:1035B0007A7200233BF078FB14461D4615F012FC8E
:1035C00001A832F085F815F003FC064601A832F098
:1035D00087F802A803F077F8002ED4D08B4508BFF7
:1035E0008245D0D342F21076361A4FF0000767EBCF
:1035F00001074FF47A720023304639463BF054FB02
:103600004FF47A72804689463046394600233BF0B3
:103610004BFB1F4658EA0903164602D0404635F0D8
:1036200039FF56EA0703AED0304633F0F9FBAAE77C
:1036300010B50446044835F0A0FF30F0FFF805F05F
:10364000A9FC0023237110BD6C0E002010B5036887
:10365000DB680C46984738B90123224619460348CF
:10366000BDE8104033F02BBC10BD00BF580E002049
:10367000F8B50079C0B1013AD4B20D46102C2046FD
:10368000B8BF102015F8016B15F0A2F829462246A4
:1036900007463CF064F830F0D1F8406803682246F1
:1036A0001D6931463B46A847F8BD000038B5114BAF
:1036B0001A78EAB90122104D1A70104C03682B6079
:1036C00081684368007B236014F0C6FF83B223B98E
:1036D0005C220B490B4832F0E9FC2B6880B20344B2
:1036E0002B602368181A2060BDE8384015F060B9D7
:1036F00038BD00BF2C0F0020541E0020501E00209B
:103700006C200500C520050030B5002489B0C0F844
:103710000841C0F80C41054630F090F803680146B6
:103720009B68684698476846FFF7C0FF30F086F808
:1037300005F024FC30F082F80368DB6898470C4BF6
:10374000049304A90B4B0C480793CDE9054435F0CD
:103750005DFF079B13B19B6804A8984730F06EF893
:10376000064805F03FFC0120287109B030BD00BFBC
:10377000633501005C2005006C0E00201938010043
:103780007047000038B504460025074B03600571FB
:103790004FF48072294608303CF005F8C4F808510F
:1037A0002046C4F80C5138BDE020050070B4D0F8B4
:1037B0000841D0F80C319C42ADBFD0F80831D0F8A8
:1037C0000C31D0F80841D0F80C41ABBFC3F1FF0376
:1037D0001B1B1B1903F1FF339A4218DC0024A24281
:1037E00010DDD0F80831D0F80C510133DBB2AB4218
:1037F00006D0D0F808510E5D05442E72C0F808318D
:103800000134ECE70121034870BC33F043BB70BCCA
:10381000704700BF580E00200A4601460148FFF7D6
:10382000C5BF00BF480D002037B51A4C1A4D2046C1
:1038300033F020FB2046194C19492A4633F013F87F
:103840002046184B40F8043B102200213BF0ABFF10
:10385000002104F1400033F0EBFB04F1540033F09D
:1038600081FB0023009320464FF48052182135F04D
:1038700079FE20460C4C0D492A4632F0F4FF2046D2
:10388000FFF780FF0A492A46204603B0BDE83040D2
:1038900032F0E9BF580E0020000200206C0E00201C
:1038A0009B6E04003C5E0500480D0020BD950400A1
:1038B000ED340100704710B50821044633F0ACF92F
:1038C000204610BD10B586B0012ABDF824401AD19B
:1038D0008288C2B1C388B3B1A24201D8A34212D236
:1038E0000020ADF8140009480390ADF81230C8204C
:1038F00003ABADF81600ADF81020009305220C23A1
:103900000348FFF703FD06B010BD00BF1201080019
:10391000280B00207047000030B585B0072B0D46FE
:10392000089C2CD90023ADF80C308DF80920132306
:1039300082888DF808300223ADF80A3052B1C3886E
:1039400043B12188914202D362889A4202D901236D
:10395000ADF80C3002AB0093052206232946094836
:10396000FFF7D4FCBDF80C304BB9E188638822889E
:103970000191A188009103482946FFF775FD05B024
:1039800030BD00BF280B0020032A37B50CD95C8856
:10399000251DAA4208D11A78122A05D15A78043373
:1039A0000093E3B2FFF7B8FF03B030BD0448054B06
:1039B000036000234360044A044932F054BF00BF4F
:1039C000300F00200C21050000020020B538010056
:1039D00070B50446006803680D46DB6A5F219847AE
:1039E0002068036829461B689847206803680021FF
:1039F0001B6B984768B9206803680122DB6B5F2165
:103A00009847012805D120680368BDE870405B69CC
:103A100018474FF0FF3070BD70B506460C46FFF7F3
:103A2000D7FF611C0546C9B23046FFF7D1FF45EA12
:103A3000002070BD70B50446006803680E46DB6A5E
:103A40005F21154698472068036831461B689847F0
:103A50002068036829461B689847206803685B6BE9
:103A60009847B0FA80F0400970BD10B504460022B6
:103A70002021FFF7DFFF20680368BDE810405B6A84
:103A80001847000038B501220D4621210446FFF7F2
:103A9000D1FF27212046FFF79BFFC30702D401F087
:103AA000C1FFF6E72A212046FFF7B6FF00B207EE76
:103AB000900AD4ED036AB8EEE77AD4ED047AE7EE23
:103AC000267A9DB917EE900A3AF04EFD0022094B76
:103AD0003AF0A2FD0022084B3AF0C8FE0022074B44
:103AE0003AF0E4FB3BF090F807EE900A17EE900AEC
:103AF00038BD00BF000022400000144000004040DC
:103B000010B5012221210446FFF794FF272120460A
:103B1000FFF75EFF830702D401F084FFF6E7282158
:103B20002046FFF779FF00B207EE900AD4ED016A54
:103B300094ED027AF8EEE77AA7EEA67A17EE100A6D
:103B400010BD00002DE9F04F2DED048B302183B026
:103B50000446FFF73DFF312180462046FFF738FF3E
:103B6000322100902046FFF733FF3521834620465F
:103B7000FFF72EFF332105462046FFF729FF3521A9
:103B800082462046FFF724FF362106462046FFF7EF
:103B900043FF3A2103B2204608EE903AFFF73CFF7C
:103BA0003C2181462046FFF737FF3E2103B22046E5
:103BB00008EE103AFFF730FF009B07465FFA88F8DF
:103BC000D8B2A0EB08003AF0BDFC18EE903ACDE96F
:103BD00000010FFA89F0C01A3AF0B4FC02460B4615
:103BE0003AF064FB02460B46DDE900013AF03EFE86
:103BF0003BF00AF809EE100A606040463AF0A2FC79
:103C0000F8EEE88A00222E4B3AF006FD68EE897A3B
:103C1000804617EE900A89463AF0A6FC02460B460B
:103C2000404649463AF040FB3AF0EEFF2D02A060D4
:103C3000B00105F4407500F4407045EA0B0B40EA12
:103C40000A001FFA8BFB80B2A0EB0B003AF07AFC63
:103C500018EE103A804638B2C01A89463AF072FC23
:103C60000022184B3AF0D8FC02460B464046494623
:103C70003AF0FCFD3AF0C8FF08EE900AE0605846C2
:103C80003AF060FCB8EEC88A00224FF07F533AF059
:103C9000C3FC68EE287A064617EE900A0F463AF003
:103CA00063FC02460B46304639463AF0FDFA3AF0DC
:103CB000ABFF206103B0BDEC048BBDE8F08F00BF0B
:103CC0000000E03F0000204010B504460068036893
:103CD000DB6998470F212046FFF77AFEBC28204673
:103CE00003D0FFF7C2FE002010BDFFF72BFF80229C
:103CF00020212046FFF79EFE0120F5E7014B024AF6
:103D00001A607047380F002078110020002070479B
:103D10007047006910B10368DB68184770474900B5
:103D20000023C161C0F828327047036801211B6B72
:103D3000184710B403689C6B0123A4465DF8044B3C
:103D40006047D0F82832B3F5807F1FBF5A1CC0F8F7
:103D50002822C01880F8281114BF012000207047C5
:103D600070477047D0F82421D0F820319A421DBF07
:103D7000D0F82431C01890F820004FF0FF30704781
:103D8000D0F820310246D0F82401181A48BF00F5B7
:103D90008070A0B1D2F82411D2F8203199420CD011
:103DA000D2F82431D2F824111344013193F8203091
:103DB000C9B2C2F82411184670474FF0FF3070475F
:103DC00038B504467C2032F0F5FE94F9182094F9B9
:103DD0001410054602F06CF8256138BD006908B181
:103DE00001F04EBF704707B581F001010091D0F896
:103DF0002832C16900F59472006901F06FFF002854
:103E000014BF0220002003B05DF804FB70B5C2B0FF
:103E100083F00103009302AE0446154613464900A1
:103E20003246006901F07BFFB0B9A84211D0D4F846
:103E30002031D4F824210133DBB2934207D0D4F8E7
:103E40002021315C224482F82010C4F82031013056
:103E5000EBE7C0B242B070BD0020FBE738B5D0F848
:103E6000283214461A44B2F5807F88BFC3F58074A7
:103E7000054600F59470224618443BF070FCD5F8D6
:103E800028322344C5F82832204638BDD0F82031E6
:103E9000D0F82401181A48BF00F580707047000060
:103EA00038B500254FF47A730446C0E90153094B35
:103EB0000360C0E905124FF48072294620303BF0C0
:103EC00072FCC4F82051C4F82852C4F8245120468A
:103ED00038BD00BF1C21050010B5084C084894F9F6
:103EE000E42094F9D810FFF7DBFF94F9742194F9DA
:103EF00068110448BDE81040FFF7D2BF040200205B
:103F00004C0F00207811002030B5A1F110040025DD
:103F100000F00F02D3B2092ACCBF373330338B7392
:103F2000CD7302398C424FEA1010F1D130BD000040
:103F300030B5012185B0192001F0B6FD012119200D
:103F400001F0E8FD194B0024DC604FF080434FF492
:103F50008032C3F85C4503F588330121C3F8482358
:103F60002020C3F8082301F09FFD0121212001F04A
:103F70009BFD0121202001F0CDFD0121212001F038
:103F8000C9FD0B4B0FCB6D4685E80F00234620463D
:103F90004FF0FF3155F823200133042BC2F8000500
:103FA000C2F86015F6D105B030BD00BFF0ED00E0FD
:103FB0006821050038B54FF0805504462146D5F8F4
:103FC000A800FFF7A1FFD5F8A40004F11001FFF746
:103FD0009BFF202038BD000072B64FF08043B02216
:103FE000C3F81C25BFF34F8F0549064BCA6802F47E
:103FF000E0621343CB60BFF34F8F00BFFDE700BF0C
:1040000000ED00E00400FA0570B58AB061B1931EBE
:10401000222B20D801AB1D4648B9AB4207D00A4637
:10402000AB4213D80023137008460AB070BDB0FB32
:10403000F2F402FB1406092E204603F10103F4B248
:1040400094BF3034573403F8014CE5E713F8010D01
:1040500002F8010BE4E70021E6E7FFF7D5BFC368EC
:1040600010B504460BB19B689847204610BD806987
:1040700010B10368DB68184770477047002303746A
:10408000704701207047D0F82031D0F82401181A69
:1040900048BF00F580707047D0F82421D0F8203157
:1040A0009A421DBFD0F82431C01890F820004FF07C
:1040B000FF307047D0F82421D0F820319A420CD03C
:1040C000D0F82431034493F82020D0F82431013370
:1040D000DBB2C0F82431104670474FF0FF30704714
:1040E000034610B107C983E80700704770470346CD
:1040F00010B107C983E807007047704710B44468DF
:10410000816862100346E40701EB02001B6848BFA8
:104110008A585DF8044B48BFD358184730B44568F7
:1041200084686A100346ED0704EB02001B6848BF71
:10413000A25830BC48BFD358184710B5036804468E
:10414000DB699847A069012300220821BDE81040DF
:1041500001F078BF7FB5836904460E465BB9D42071
:1041600032F028FD3346054694F91D2094F91C10C1
:1041700001F00AFFA56194F91E20531C05D094F9A3
:104180001F30A069032101F0A0FF094B009300221A
:10419000084BA06903936946CDE9012402F024F895
:1041A000039B13B19B686846984704B070BD00BF7D
:1041B000B94101008421050010B50446A06901F051
:1041C00058FF90B1A06901F0E9FED4F82031D4F88D
:1041D00024210133DBB29342F0D0D4F820212244D1
:1041E00082F82000C4F82031E8E710BD38B5044655
:1041F0000D46A06901F04EFF0028FAD02946A069BB
:1042000001F0DBFE013018BF012038BD2DE9F04F71
:10421000064687B00C46174601EB0208B06901F06C
:1042200039FF58B3DFF868A0DFF868B04FF0010934
:10423000444528D2756986F81090A8EB0403AB4278
:104240003CBFB7FBF5F305FB13750023CDE903363F
:10425000042300932A4602AB2146B069CDF808A09A
:10426000CDF814B002F086F8059B13B19B6802A844
:104270009847337C2BB101F0D5FBFAE701F0D2FB74
:10428000CCE72C44D4E7384607B0BDE8F08F00BF38
:104290007D4001007821050038B5104C104B0025F9
:1042A0004FF47A7193F9002093F90C306377C4E9E5
:1042B00001510C4921602021FF23C4E90515227713
:1042C00029464FF4807204F12000A377E3773BF096
:1042D0006AFAC4F82051C4F8245138BDA413002050
:1042E000040200209821050038B50546064B45F824
:1042F000283B044602F02AF92846FFF7B0FE204684
:1043000002F066FA204638BDCC26050010B50446FA
:10431000FFF7EAFF2046402132F07EFC204610BD28
:1043200038B50D461022002104463BF03CFAEB68FC
:104330001BB15B68294620469847EB68E36020463E
:1043400038BD002070477047704710B5D0F84C4515
:104350002CB1236820465B689847A468F8E710BD35
:1043600038B5D0F84C450D4634B1236820469B68DB
:1043700029469847A468F7E738BD00000048704711
:1043800058220500004870476022050010B5054B13
:104390000360044604F03BF8204604F09BF82046F6
:1043A00010BD00BFD821050010B50446FFF7EEFF91
:1043B00020464FF4AA6132F02FFC204610BDF7B51D
:1043C000D0F84C4505460E460023A4B1236831467B
:1043D000DF680DF1030201AB2046B8479DF80310DA
:1043E0000429034605D0019A284603F0D9FA03B000
:1043F000F0BDA468E9E7019A9DF80310F4E770B5F1
:1044000005460E4622B10021BDE8704003F0D4B845
:10441000D0F84C455CB1236800221B693146204628
:10442000984710B101212846EEE7A468F2E721463B
:10443000F9E770B5D0F84C450E46054600213CB171
:104440002368314620465B699847A4680146F6E731
:104450002846BDE8704003F0A3B9F8B5D0F84C4544
:1044600005460E4617463CB1236820469B693A46EE
:1044700031469847A468F6E728460121BDE8F84090
:1044800003F0ECB970B5002186B0044603F018FCC7
:104490000023ADF8063023898DF810301B0AA1885F
:1044A000E2888DF811304FF4897540F20123ADF8A0
:1044B0000450ADF81230022540F20313EF268DF8B8
:1044C00007508DF809508DF80C100125090A8DF858
:1044D0000E20ADF81430120A04F10A038DF80860BA
:1044E0008DF80A508DF80B008DF80D108DF80F2007
:1044F00001AD05AE1C462A4603CAB2421860596097
:10450000154603F10803F6D112881A80204606B03A
:1045100070BD40F2023310B50446A0F8C83400F272
:10452000CA40FFF747FD94F8C834184484F8C8041B
:1045300004F5996010BD00002DE9FF4100238DF8BE
:104540000A3090F848351B4A8DF808300123019253
:104550008DF809303222C0238DF80B308DF80C20F5
:1045600001AB044600F54E7803CBC4F83803C8F815
:10457000041088F80820D4F84C6509258EB13368FA
:1045800000211B6830469847478805F54E73093F60
:1045900000F109013A46E0183BF0E1F83D44B66805
:1045A000ECE784F83A5340462D1284F83B5304B0AC
:1045B000BDE8F0810902FFFF40F2023330B5A0F8F8
:1045C00008350B4D002300F20A521C46595D02F8D3
:1045D000131002EB430101330B2B4C70F6D190F812
:1045E0000835163380F8083500F5A16030BD00BFEE
:1045F000C421050073B504460D46164635F04AFA47
:104600004FF480730093014633462A46204603F058
:1046100013FB024B2360204602B070BDD821050079
:10462000D0F84C356BB9C0F84C1590F848350B7183
:1046300090F848354A79134480F84835012070478E
:1046400013469A68002AFBD19960EEE71FB504462D
:1046500003F0ECFA0146684602F010FD402168467E
:1046600002F07EFDD4F84C4534B123682046DB6966
:1046700069469847A468F7E7684602F006FD04B06B
:1046800010BD10B50446FFF7E1FF2046BDE810401D
:1046900003F0B3BA10B50D4C2378BFF35B8FDB0783
:1046A00012D4204632F0F2F870B148F25A0242F2C7
:1046B00041310748FFF79EFF204632F009F9054ACD
:1046C0000549034832F0CFF8014810BDD01400204E
:1046D000D4140020000200208D43010010B5FFF724
:1046E000D9FF0368BDE810405B6F184710B5FFF7AE
:1046F000D1FF0368BDE810409B6F184710B5FFF766
:10470000C9FF0368BDE81040DB6F184702F040BEE8
:1047100002F054BE02F02CBE704770477047436AE7
:1047200093F870007047000000487047D2230500DE
:1047300000487047BC2305002DE9F04F044697B0B0
:104740004B260F463246002103A83BF02CF8257972
:10475000637B94F80EA094F80C900193681CC0B28F
:10476000002F40F0958040F20923ADF80C304FF453
:104770008173ADF8103080238DF8133032238DF81B
:104780001430082301228DF815300B238DF81630D4
:104790008DF8212040F202238DF8242042F20541B9
:1047A0008DF82A208DF82D208DF82F2006224FF02D
:1047B000240C4FF0090E0427ADF81830ADF8261080
:1047C000022305214FF010088DF833208DF8362094
:1047D0004FF0030B07228DF817508DF81A308DF823
:1047E0001DE08DF81F508DF822308DF823308DF8A4
:1047F0002B108DF82CC08DF831C08DF832308DF82B
:1048000034108DF835C08DF80E608DF81E708DF85F
:1048100029808DF82EB08DF830708DF837508DF8D6
:1048200039208DF8492044F20202ADF84C2040F2C4
:1048300007528DF838008DF84200ADF8502040F650
:1048400002209DF804208DF83A101D34ADF8440084
:104850008DF84A108DF852208DF8533044F203053C
:104860004023324603A920468DF83BA0ADF83C50CA
:104870008DF83F808DF840E08DF841708DF84B90B9
:104880008DF854303AF06BFF204617B0BDE8F08F3A
:104890000020FAE7034610B107C983E80700704714
:1048A000704710B44468816862100346E40701EB66
:1048B00002001B6848BF8A585DF8044B48BFD358B4
:1048C0001847000038B505460A4B45F8C83B044672
:1048D000FFF7E0FE03F09BFD284602F0E0FC04F148
:1048E000740002F0DCFC04F1680002F0D8FC204601
:1048F00038BD00BF8023050010B50446FFF7E2FF76
:1049000020464FF48E7132F087F9204610BDFFF734
:10491000F5BE000010B5034B0360044602F00EFB29
:10492000204610BDA822050010B50446FFF7F2FF8F
:104930002046282132F070F9204610BD10B5034BF7
:104940000360044602F0FAFA204610BD7822050002
:1049500010B50446FFF7F2FF2046342132F05CF92F
:10496000204610BD10B5034B0360044602F0E6FA82
:10497000204610BD9022050010B50446FFF7F2FF57
:104980002046382132F048F9204610BD38B51C4B7E
:104990000D461968C0F80F1099889B794375044635
:1049A000A0F8131040220221284602F0CFFB40223B
:1049B00020730221284602F0CEFB402260730321BF
:1049C000284602F0C3FBA073284602F05FFB20B923
:1049D000AC220C490C4831F069FB002304F17D0244
:1049E000C4E9302304F1D10284F8703084F87C30BB
:1049F00084F8D030C4F81421C4F8183138BD00BF91
:104A0000C4220500FB220500642305002DE9F341C3
:104A100004460E46FFF772FEF28823799A4236D199
:104A20007578012D33D1F378202B28D13289072ACC
:104A300025D104F10F0804F11607394640463AF033
:104A40007FFED0B1D4F81630C4F80F30207CE17B63
:104A5000638BA4F8133001EB0021607CE77C237F9B
:104A6000009701EB00412768A07C637501EB0061B2
:104A7000237D627D3F6B2046B847284600E000203A
:104A8000F378212B08BF012002B0BDE8F08100209F
:104A9000FAE710B50446FFF731FEFFF7FBFD217B77
:104AA00003F052FB04F17D03C4F8C0300023C4F8C6
:104AB000C43084F87C3004F1740002F0A0FB94F858
:104AC0007C302BB9236820469B6BBDE8104018470B
:104AD00010BD000070B50446FFF710FED4F8185161
:104AE0002DB14FF4EC720F490F4831F0DFFA04F1A9
:104AF000D103C4F81431FFF7CDFD617B03F082FAD6
:104B000084F8D050C4F8180104F1C80002F077FB13
:104B100094F8D0302BB9236820465B6BBDE8704019
:104B2000184770BDFB220500CB220500022310B5FB
:104B30004371002383600A4B044640F8683B02F04F
:104B400051FB04F1740002F04DFB04F1C80002F0C7
:104B500049FBFFF79FFD2146FFF762FD204610BD90
:104B60008023050070B504460D46FFF7C7FD84F8A5
:104B70007050002D3ED194F87C3033B1FFF78AFDA0
:104B8000217B03F0B9F884F87C5004F17D0304F133
:104B9000740600253046C4F8C030C4F8C45002F092
:104BA0002EFB304602F024FB28B91549154840F287
:104BB0003F1231F07BFA94F8D03033B1FFF76AFD41
:104BC000217B03F099F884F8D05004F1D103C4F8A4
:104BD000143104F1C80500232846C4F8183102F046
:104BE0000EFB284602F004FB20B940F249120449AA
:104BF0000548DEE704F16800BDE8704002F0FFBA46
:104C0000FB220500D9220500EA22050010B5044662
:104C1000FFF774FD20460021BDE81040FFF7A2BF5A
:104C200038B50D460446FFF769FD042D05D0204632
:104C30000021BDE83840FFF795BF38BDF8B51546EF
:104C400004460E461F46FFF759FD04232B70F288D9
:104C500023799A421DD1717801291AD1F278212A3B
:104C600008D0222A0BD0202A4FF0000013D1287040
:104C7000163401E029700F343C600720F8BDB3887A
:104C800013F0010308BF19462046FFF76BFF02230C
:104C90002B700020F2E703232B70EFE710B58AB0EA
:104CA0000446FFF71BFD684602F02CF90A4B0093FF
:104CB000694604F16800099402F0BAFA2046FFF749
:104CC00015FD4FF0FF320021684602F073F9684687
:104CD000FFF720FE0AB010BDA822050070B58EB007
:104CE000154604460E46FFF7F9FC01A802F00AF942
:104CF0000E4B0C9501A9002504F174000193CDE938
:104D00000A468DF8345002F093FA2046FFF7EEFC85
:104D10004FF0FF32294601A802F04CF901A89DF896
:104D20003440FFF70BFE20460EB070BD7822050020
:104D300010B50446FFF7E2FC94F87C307BB9D4F858
:104D4000C43063B1FFF7A6FCD4F8C430217B04F172
:104D50007D0203F097F910B1012384F87C3010BD77
:104D60002DE9F8431E460446894690469DF820707A
:104D7000FFF7B4FC0023336094F87030E3B194F88B
:104D80007C30CBB9D4F8C450C5F14005454528BFA7
:104D90004546B8F1000F05D02A464946D4F8C00070
:104DA0003AF0DDFCD4F8C4302B44C4F8C43035608C
:104DB00017B12046FFF7BCFF2046BDE8F843FFF7D8
:104DC00095BCF0B50446406A90F8705085B0012655
:104DD0002DB984F830503546284605B0F0BD04ABF7
:104DE000002743F8047DD4E90A120096FFF7B8FFC4
:104DF0000399E36AA26A5B1A0A44E362A26213B9E6
:104E000084F83060E8E7606AFFF792FF3D46E3E729
:104E10002DE9F0431C4691B0904606468946FFF7BF
:104E20005DFC002C08BF01AC4FF00005256002A816
:104E30000CBF0127002702F065F8104B029302A96E
:104E400006F1C800CDE90D84CDE90B698DF83C7001
:104E50008DF83D5002F0ECF93046FFF747FC4FF07B
:104E6000FF32294602A802F0A5F802A89DF83D40AD
:104E7000FFF778FD204611B0BDE8F08390220500D1
:104E800010B5D0F8183104466BB990F8D03053B94A
:104E9000FFF700FC402304F1D102617B03F054F8DA
:104EA000012384F8D03010BD70B51E46044600239F
:104EB000336094F870300846EBB194F8D030D3B931
:104EC000D4F81851D4F81411954228BF15462A4633
:104ED0003AF045FC3560D4F81431D4F818212B444D
:104EE000551BC4F81431C4F8185125B92046BDE843
:104EF0007040FFF7C5BF70BD37B50446406A90F8F3
:104F000070502DB984F835500125284603B030BDC6
:104F100002AB002243F8042DD4E90A12FFF7C4FFC4
:104F20000199A26A0A44A262226B13680B441360BF
:104F3000E36A01995B1A94F83410E36209B91268C4
:104F400002B91BB9012384F83530DEE7606AFFF748
:104F500097FF0025D9E70000F0B587B00446FFF7BA
:104F6000CDFBFFF797FB02ADA77B06461022002181
:104F700028463AF018FC3946032340220095304673
:104F800003F0CAFA2846FFF76AF8FFF783FB164BCF
:104F9000217B0293402202230027144E0095CDE985
:104FA0000374059603F0B8FA2846FFF758F8FFF7A0
:104FB00071FB0F4B617B00954022CDE90237022344
:104FC000CDE9044603F0A8FA2846FFF748F8FFF7B2
:104FD00061FB4023D4F81421617B02F0B5FF01206E
:104FE00084F8D00007B0F0BD934A0100B822050054
:104FF000D54A01006FF01500704703681B69184718
:1050000003689B69184703689B6A184700290CBF0F
:105010006FF0180000207047012070476FF01500F6
:1050200070476FF015007047112070477047704748
:10503000704703685B6C1847A0F59A70F9E77047F2
:1050400070477047704790F87000704710F8C40CB4
:105050007047D0F84432D0F84802181A48BF00F51B
:1050600080707047A0F59A70F3E7D0F84822D0F826
:1050700044329A421DBFD0F84832C01890F844011B
:105080004FF0FF307047A0F59A70EEE7D0F8482255
:10509000D0F844329A420CD0D0F84832034493F806
:1050A0004421D0F848320133DBB2C0F84832104610
:1050B00070474FF0FF307047A0F59A70E6E77047F1
:1050C00003681847034610B107C983E80700704713
:1050D0007047034610B107C983E80700704770475F
:1050E00010B44468816862100346E40701EB0200D3
:1050F0001B6848BF8A585DF8044B48BFD35818470F
:1051000010B44468816862100346E40701EB0200B2
:105110001B6848BF8A585DF8044B48BFD3581847EE
:1051200038B500F071FC094D044695F870301BB19C
:10513000012000F06FFCF8E700F066FC001BC728B8
:10514000F6D9BDE83840FEF747BF00BF241A00205B
:105150004FF0FF3103F0CEBA07B502AB012243F89E
:10516000041D1946FFF7BAFD18B1019803B05DF8A8
:1051700004FB4FF0FF30F9E7A0F58E70FFF7ECBFAE
:1051800008B590F8703013B1FFF7A8FD08BD1846B8
:10519000FCE7A0F59A70F3E707B502A9002301F830
:1051A000013D0122FFF734FE20B19DF8070003B056
:1051B0005DF804FB4FF0FF30F9E7A0F58E70FFF7C4
:1051C000EBBF2DE9F04104460D4616461F46DDF8BB
:1051D0001880FFF793FAD4F81C433CB143463A4693
:1051E00031462846A446BDE8F0416047BDE8F0815D
:1051F00010B50446FFF782FAD4F818332BB104F542
:1052000043701B68BDE81040184710BD90F870301F
:1052100013B10368DB6B184718467047A0F59A7006
:10522000F4E70000B0F5966F10B511D104210948DC
:1052300003F0E2FA044658B1074B0360074903F054
:1052400073FC224606490348BDE8104003F094BBB6
:1052500010BD00BF441D002021510100BF500100BE
:10526000C1500100F7B51F460E4B04460D4640F8ED
:10527000043B1646002110223AF095FA002104F171
:10528000400031F0D5FE04F1540031F06BFE089B74
:10529000009320463B463246294634F063F92046C7
:1052A00003B0F0BD3C5E0500F7B5044615461F4649
:1052B0000E4634F0EFFBBDF8203000932A463B4603
:1052C00001462046FFF732FC002104F58E7030F0D5
:1052D00057FB4FF47A73C4F83C31194B236003F148
:1052E00074020025C4F81C2103F1E002F033C4F875
:1052F0002021C4F834314FF480722946C4F8385163
:1053000004F5A2703AF04FFAC4F844522B464FF419
:1053100080521821C4F84852009504F51370FFF725
:10532000A1FF1022294604F543703AF03CFAC4F874
:105330001C5316B12046FFF7B1FC204603B0F0BD68
:10534000FC23050038B50546FFF7C8F995F8D030BD
:1053500053B9D5F81841FF2C28BFFF24E4B22846E2
:10536000FFF7C4F9204638BD0024F8E710B504461D
:10537000D4F84422D4F848329A42ADBFD4F844322B
:10538000D4F84832D4F84422D4F84822ABBFC3F151
:10539000FF039B1A9B1803F1FF33BBB12046FFF7B5
:1053A000D1FF98B1236820461B6C9847D4F844324B
:1053B000D4F848220133DBB29342D9D0D4F8442246
:1053C000224482F84401C4F84432D1E710BD000001
:1053D000104B03F1080210B5026003F17C02C0F823
:1053E0001C2103F1E802F8330446C0F82021C0F87C
:1053F000343100F54370FEF732FE04F5137034F0DB
:10540000DDF804F58E7030F0E5FA2046FFF75AFA21
:10541000204610BDF4230500A0F58E70FFF7D8BF1D
:10542000A0F59070FFF7D4BF10B50446FFF7D0FF8A
:1054300020464FF4487131F0EFFB204610BDA0F537
:105440009070FFF7F1BFA0F58E70FFF7EDBF000081
:105450007FB50446FFF742F91D4BC4F81C332046C4
:10546000FFF744F91B4B009320461B4B039304F5B5
:1054700043750026CDE90164FFF730F92846FEF7B1
:10548000EEFD6DB11022314628463AF08CF9039BAF
:105490001BB15B68694628469847039BC4F81833DC
:1054A0002046FFF723F96846FEF7D9FD0B4B009322
:1054B000002301930A4B029369460A4B039304F5B8
:1054C000137034F0A3F86846FEF7C9FD04B070BD50
:1054D000255201006D530100E823050051510100E0
:1054E000441D0020DC230500A0F59A70FFF7B0BF33
:1054F00037B50F4C0F4D00226821204603F0E0F82D
:105500002A460D4920460D4C31F0ADF90123009398
:105510004FF4F85242F2120300212046FFF7C4FE76
:1055200007492A46204603B0BDE8304031F09BB918
:10553000441D002000020020F9860100241A0020EA
:10554000D153010008B539F02FFD2DE9F843064687
:105550000D46071D00F10709002417F8011B0A2258
:10556000284600F095F82E218046284600F048F89D
:105570004F4540440444F0D10A22F179284600F016
:1055800087F82044BDE8F883024B034A1A600022E2
:105590005A607047A01D0020202505002DE9F0412C
:1055A00006460D4601EB02080C464445A4EB0507F0
:1055B00007D0336814F8011B1B6830469847002851
:1055C000F3D13846BDE8F08170B5044608460D4673
:1055D0003AF093FF23680246294620465B68BDE8FF
:1055E0007040184709B1FFF7EFBF084670470368DE
:1055F0008A685B680968184708B5FFF7F3FF08BDBC
:1056000003681B68184700000149FFF7DDBF00BFB2
:10561000FD57050038B50546FFF7E9FF0446284663
:10562000FFF7F2FF204438BD38B50546FFF7DAFF33
:1056300004462846FFF7E8FF204438BD70B58AB01D
:105640000D460AA9002301F8043D012A98BF0A2249
:10565000B5FBF2F402FB1456F3B2092E94BF3033BB
:105660003733DBB2254601F8013D002CF0D1FFF7BE
:10567000B9FF0AB070BD10B42AB903685DF8044BD5
:105680001B68C9B21847D2B25DF8044BFFF7D6BF0A
:10569000FFF7F1BF38B50546FFF7EDFF0446284692
:1056A000FFF7B2FF204438BD2DE9F84F19460646F2
:1056B000104614461D469DF8287039F047FA28B167
:1056C0004C493046BDE8F84FFFF77EBF25F0004952
:1056D0004FF0FF32484B2046494639F037FA48B977
:1056E0004FF0FF32444B2046494639F011FA08B9D1
:1056F0004249E6E74FF06042414B2046294639F0E7
:105700001BFA08B13F49DCE74FF060423E4B2046B0
:10571000294639F0F3F90028F4D10022002320466D
:10572000294639F0EBF9D0B12D213046FFF768FF5B
:1057300005F1004382461D463449DFF8D8904FF00A
:10574000000B00204FF000085FFA8BF39F4208D94E
:1057500042464B4639F08AF80BF1010BF4E78246DA
:10576000EAE722462B4638F0A1FD0D46044639F003
:105770002BFA0A22014680463046FFF75FFF82443B
:10578000A7B3404638F0CEFE02460B4620462946D7
:1057900038F08AFD04460D4630461D49DFF8749006
:1057A000FFF712FF4FF000088244013FFFB2FF2FC6
:1057B0001CD04B4642462046294638F02DFF0D4668
:1057C000044639F001FA0A22014683463046FFF7C3
:1057D00035FF8244584638F0A5FE02460B46204667
:1057E000294638F061FD04460D46DEE75046BDE827
:1057F000F88F00BF24250500FFFFEF7F2825050057
:10580000FFFFEF412C250500FFFFEFC10000E03F47
:10581000CD1E0500000024409DF800100091FFF708
:1058200043BF10B50446006808B139F01DFF20469B
:1058300010BD10B50446006808B139F015FF00230B
:105840002360C4E9013310BD38B504460D46006835
:1058500001313AF0CBFC10B1C4E90005012038BD9C
:10586000036810B5044623B143688B4201D301207D
:1058700010BD2046FFF7E8FF0028F9D0A368002BF1
:10588000F5D122681370F2E770B50E461146044652
:105890001546FFF7E5FF20B92046FFF7CAFF20466F
:1058A00070BDA560314620683AF01FFEF7E738B5B5
:1058B00000230446C0E9003383600D4639B1084631
:1058C0003AF01BFE294602462046FFF7DDFF204640
:1058D00038BD38B5054608460C463AF00EFE21465E
:1058E00002462846BDE83840FFF7CEBF10B5044653
:1058F00019B1FFF7EEFF204610BDFFF79AFFFAE758
:1059000070B505460E4609B9002070BD6AB18468BD
:1059100014442146FFF7A4FF0028F5D02868AB689F
:10592000314618443AF0E1FDAC600120EDE707B5DF
:1059300000238DF80410012201A98DF80530FFF72E
:10594000DFFF03B05DF804FB03680A46096863B132
:1059500041B9806860B118787047906840B10878A4
:105960004042704718463AF0B6BD0029F5D10846C6
:10597000704708B582688B689A4205D1FFF7E4FF4B
:10598000B0FA80F0400908BD0020FCE7884270B5FD
:1059900015D083688A6893420FD183B104680D687B
:1059A000013C14F8010F50B13AF052FE064615F8CA
:1059B000010B3AF04DFE8642F3D0002070BD01206D
:1059C000FCE7000010B500F027F8FEF7B1FAFEF78B
:1059D00061FEFEF756FE4FF4E1310648064CFFF734
:1059E00037FDFAF79FFCFAF70DFC002CFBD0AFF364
:1059F0000080F8E7241A00200000000010B50446DB
:105A000000F026FE204610BD014800F070BE00BF29
:105A1000A81D002033F03EBD014800F029BE00BFA4
:105A2000A81D002033F044BD10B52FF041FB064CFB
:105A30000146204600F075FE2046044A0449BDE8B0
:105A4000104030F010BF00BFA81D00200002002051
:105A5000FD59010008B590F900305A1C04D12022EC
:105A60000E490F4830F022FB012259B11F2B86BF8F
:105A700003F01F030B494FF0A04102FA03F3C1F8F2
:105A8000083508BD1F2B86BF03F01F0305494FF0E3
:105A9000A04102FA03F3C1F80C35F2E73025050006
:105AA000C02505000003005007B5032918D8DFE81A
:105AB00001F0020D1A240C235843154B195602A865
:105AC000002200F8042D2FF09BFA09E00C23584324
:105AD0000F4B195602A8002300F8043D2FF0A4FA3A
